:10000000021F872055636F72723A25352E3266566D
:10001000200A00204144433D25640A0A0020636110
:100020006C2E6661632E20626C6F636B2E414443BD
:10003000636F6E766572743A20252E34660A00204E
:100040007265735F61633D4D44555F4F70657261CA
:100050006E64323A252E34660A0010140B12212BDE
:10006000BF0D027F0A02205E90F334E0FF22D287A8
:01007000226D
:1000730002480B0203BEE86480F8E933E8336011F9
:100083000460F0ED33EC337009E8FCE9FDEAFEEBC4
:10009300FF220460DED3EB9FEA9EE99DE8C2E78C72
:1000A300F0C2F795F0400CE8CCF8E9CDF9EACEFAC6
:1000B300EBCFFB12038985D0F05804700320D5B32E
:1000C300E80470075002B2D50203C892D5EC04606D
:1000D300F7E4CCC0E0C398F8603B94186008400D87
:1000E300D0E0FB0203A0E4FBFAC9FC8028E830E47B
:1000F30006E4C9FBE4CAFCE830E305E4C9CACBFC67
:10010300E854076010F8C3E913F9EA13FAEB13FB99
:10011300EC13FCD8F130F52FC3E49CFCEF9BFFEE0E
:100123009AFEED99FDD0E0FBEF4E4D4C701222DBB1
:10013300030203C5EC2CFCEF33FFEE33FEED33FD7E
:10014300ED30E7EB0203A0EF2BFFEE3AFEED39FDB6
:10015300D0E0FB50130BBB00030203C8ED13FDEE0D
:1001630013FEEF13FFEC13FC0203A0EC4D6011E848
:10017300497017ED33EC3304600DE4FCFFFEFD2200
:10018300E933E8330470F80203BE120389580460AC
:1001930009E4CC248150062850090203C8284003EF
:1001A3000203C5C0E0EB4A7044B98006D0E0FB020D
:1001B30003B4EF4E701CBD8008EBFFEAFEE9FD803F
:1001C300EBE98DF0A4FEE5F0020257E9CDF9EAFE72
:1001D300EBFFEF89F0A4FCE5F0CE89F0A42EFFE459
:1001E30035F0CD89F0A42DFEE435F08067EF4E7035
:1001F30005BD80D780C3EF8BF0A4ACF0EE8BF0A4E9
:100203002CFCE435F0F8EF8AF0A42CE5F038FCE49C
:1002130033CB8DF0A42CFCE5F03BF8EE8AF0A42C54
:10022300FCE5F038F8E433CF89F0A42CFCE5F03892
:10023300CF3400CE89F0A42FFFE5F03EFEE433C9AE
:100243008DF0A42EFEE5F039CD8AF0A42FFFE5F062
:100253003EFEE43DFD33D0E0FB50070BBB000F0235
:1002630003C8EC2CFCEF33FFEE33FEED33FD02034A
:10027300A00203C8EC5D046005E85904700302039F
:10028300BE120389580460F6EC4860F2EC7004FD7A
:10029300FEFF22C860DB2481C85009C39860025066
:1002A300060203C59850CAF582E9294B4A7005AB8B
:1002B300820203B475F0007C1A7880C3EF9BEE9A38
:1002C300ED99400DC3EF9BFFEE9AFEED99FDE842D9
:1002D300F0DC23ACF0D0E0FFD0E0FED0E0FDAB8259
:1002E30020E7101BEB60BAEC2CFCEF33FFEE33FE80
:1002F300ED33FD0203A0E803F830E705C0F075F025
:1003030000EF2FFFEE33FEED33FD40B830E7C28040
:10031300AA75F020800E75F010800575F0087D0039
:100323007E007F003392D530D5031207B5EC3340FE
:1003330010EF33FFEE33FEED33FDEC33FCD5F0ED80
:1003430022E5F0247EA2D513CC92E7CDCEFF22ED99
:10035300D2E7CD33EC3392D524814006E4FFFEFD92
:10036300FC22FCE4CFCECDCC24E0501174FF80ED11
:10037300C3CC13CCCD13CDCE13CECF13CF0470F09B
:1003830030D5DE0207B5E9D2E7C933E833F892D5B1
:10039300EDD2E7CD33EC33FC5002B2D522EC30E79B
:1003A300100FBF000C0EBE00080DBD00040BEB6068
:1003B30014A2D5EB13FCED92E7FD2274FFFCFDFEC6
:1003C300FF22E480F8A2D574FF13FC7D80E480EF64
:1003D300F920E73624F950037907E4F42402FBE516
:1003E30082158270021583DBF6E024FB501BE96063
:1003F30014E4F0E582158270021583E004F0B40A78
:1004030008E4F0D9EE7401F00A22C2D522ED33ECF0
:100413003392D5FA602AB4FF33EDC2E77BFF60065F
:100423007A047935E4227A04793E20D5047A047972
:1004330039224E614E002B494E46002D494E46004F
:10044300E47A08F0A3DAFC7B00740722C083C0823D
:10045300ECC0E0EDC0E0EEC0E0EFC0E0EA75F01004
:10046300A4CAABF075F04DA42BFBE435F0FCEA24F1
:1004730010FAEB34C5FBEC34D9FCEDC2E7FF75F0A1
:1004830056A4F42411C5F0F434C58FF0A42AE5F082
:100493003BE43CF020E714120556D0E0FFD0E0FE29
:1004A300D0E0FDD0E0FC1202778014F4041205566C
:1004B300D0E0FFD0E0FED0E0FDD0E0FC12016ED032
:1004C30082D083E0FAEDD2E7CD33EC332482FBE430
:1004D300C3CF33CFCE33CECD33CD33DBF37B0775F1
:1004E300F00A846004F0A31B0AE5F0F0A38FF07414
:1004F3000AA4FFACF08EF0740AA42CFEACF05001F9
:100503000C8DF0740AA42CFDE435F0F0A3DBDE744B
:100513000722ED33EC33600A047003BD8004ECB2B0
:10052300E7FC223F8000004120000042C800004455
:100533007A0000461C400047C35000497424004B16
:100543001896804CBEBC205A0E1BCA6753C21C743B
:100553009DC5AEFB60065407601C2323120584EB84
:100563005438600912057012057F12016EECF8ED24
:10057300F9EEFAEFCB22EB12057F80F15438032416
:100583001C900526FE93FC0EEE93FD0EEE930ECE0D
:1005930093FF22BB010689828A83E0225002E7226D
:1005A300BBFE02E32289828A83E49322BB010CE52A
:1005B3008229F582E5833AF583E0225006E9258214
:1005C300F8E622BBFE06E92582F8E222E58229F558
:1005D30082E5833AF583E49322BB010689828A8309
:1005E300F0225002F722BBFE01F322F8BB010DE516
:1005F3008229F582E5833AF583E8F0225006E9255E
:1006030082C8F622BBFE05E92582C8F222EF8DF0EF
:10061300A4A8F0CF8CF0A428CE8DF0A42EFE22C285
:10062300D5EC30E709B2D5E4C39DFDE49CFCEE3084
:10063300E715B2D5E4C39FFFE49EFE12095DC3E450
:100643009DFDE49CFC800312095D30D507C3E49F44
:10065300FFE49EFE22C5F0F8A3E028F0C5F0F8E51C
:1006630082158270021583E038F022A3F8E0C5F00A
:1006730025F0F0E582158270021583E0C838F0E8B2
:1006830022BB010A89828A83E0F5F0A3E0225006A7
:1006930087F009E71922BBFE07E3F5F009E3192206
:1006A30089828A83E493F5F074019322BB0107895D
:1006B300828A8302066E500B09C5F027C7C5F0195D
:1006C30037C722BBFE0F09F8E3C5F025F0F319E3A2
:1006D300C838F3E82289828A83740193F5F0E4939E
:1006E30022BB0110E58229F582E5833AF583E0F523
:1006F300F0A3E0225009E92582F886F008E622BB40
:10070300FE0AE92582F8E2F5F008E222E5832AF5FC
:1007130083E993F5F0A3E99322BB010DC58229C5B3
:1007230082C5833AC5830206585011C58229F80849
:10073300E5F026F618F5F0E58236F622BBFE11C584
:100743008229F808E225F0F5F0F218E23582F22268
:10075300F8E58229F582E5832AF58374019325F070
:10076300F5F0E4933822BB010A89828A83F0E5F02D
:10077300A3F0225006F709A7F01922BBFE06F3E502
:10078300F009F31922F8BB0111E58229F582E5830B
:100793003AF583E8F0E5F0A3F0225009E92582C891
:1007A300F608A6F022BBFE09E92582C8F2E5F008A7
:1007B300F222C3E49FFFE49EFEE49DFDE49CFC2241
:1007C300EB9FF5F0EA9E42F0E99D42F0E89C45F08C
:1007D30022E8600FECC313FCED13FDEE13FEEF13E1
:1007E300FFD8F122E8600FEFC333FFEE33FEED33A2
:1007F300FDEC33FCD8F122BB010789828A8302090D
:10080300BE5005E9F80209B2BBFE05E9F80209CAC0
:1008130089828A83020864BB010DE58229F582E59A
:10082300833AF5830209BE5007E92582F80209B22B
:10083300BBFE07E92582F80209CAE58229F582E5AC
:10084300833AF583020864BB010789828A8302081D
:10085300845005E9F80209D6BBFE05E9F80209E26E
:1008630022E493FC740193FD740293FE740393FFDB
:1008730022E493F8740193F9740293FA740393FBDB
:1008830022ECF0A3EDF0A3EEF0A3EFF022A8828513
:1008930083F0D083D0821208A71208A71208A712E8
:1008A30008A7E473E493A3C583C5F0C583C8C582D1
:1008B300C8F0A3C583C5F0C583C8C582C822BB01E0
:1008C3000DE58229F582E5833AF583020890500706
:1008D300E92582F80209EEBBFE07E92582F8020A40
:1008E3000722A42582F582E5F03583F58322E0FB18
:1008F300A3E0FAA3E0F922F8E0FBA3A3E0F925F0D3
:10090300F0E582158270021583E0FA38F022F8E0F0
:10091300FBA3A3E025F0F9F0E582158270021583AD
:10092300E038FAF022EBF0A3EAF0A3E9F022D08357
:10093300D082F8E4937012740193700DA3A393F81B
:10094300740193F5828883E4737402936860EFA360
:10095300A3A380DF8A838982E473BC000BBE0029D2
:10096300EF8DF084FFADF022E4CCF875F008EF2FA3
:10097300FFEE33FEEC33FCEE9DEC984005FCEE9D60
:10098300FE0FD5F0E9E4CEFD22EDF8F5F0EE84207C
:10099300D21CFEADF075F008EF2FFFED33FD4007DD
:1009A300985006D5F0F222C398FD0FD5F0EA22E65F
:1009B300FC08E6FD08E6FE08E6FF22E0FCA3E0FDF6
:1009C300A3E0FEA3E0FF22E2FC08E2FD08E2FE084A
:1009D300E2FF22ECF608EDF608EEF608EFF622EC5D
:1009E300F208EDF208EEF208EFF222D083D082E4AF
:1009F30093F608740193F608740293F6087403934C
:100A0300F6740473D083D082E493F208740193F2F2
:100A130008740293F208740393F27404731B5B3239
:100A23004A001B5B323B3248000A2D424154544575
:100A33005259204D414E4147454D454E5420257353
:100A43002025732D0A207543205357205665727352
:100A5300696F6E3A2573200A004D61722031372089
:100A6300323031300031303A32303A343500763377
:100A73002E312050616E61736F6E69632042617421
:100A8300746572794D616E6167656D656E742D5322
:100A9300001B5B356D000A4D6561737572656D658D
:100AA3006E743A0A001B5B306D0020546D696E3A18
:100AB3002537644320546D61783A25346443200A12
:100AC3000020556D696E3A25372E32665620556DD6
:100AD30061783A25342E3266560A002055626C6FCF
:100AE300636B3A25352E3266560A0A00205564692F
:100AF30066663A25362E3266560A002055617665BB
:100B0300723A25362E3266560A0020556D696E3AC2
:100B130025372E33665620556D61783A25342E33AA
:100B230066560A0A002054656D70313A25366443CF
:100B3300200A2054656D70323A25366443200A201A
:100B430054656D70333A25366443200A002054629D
:100B53006F6172643A25356443200A0A00205530D8
:100B6300636F72723A25352E336656200A0020557C
:100B730031636F72723A25352E336656200A002090
:100B83005532636F72723A25352E336656200A004A
:100B9300205533636F72723A25352E336656200A19
:100BA30000205534636F72723A25352E3366562012
:100BB3000A00205535636F72723A25352E33665617
:100BC300200A00205536636F72723A25352E33663C
:100BD30056200A00205537636F72723A25352E333B
:100BE3006656200A00205538636F72723A25352EF7
:100BF300336656200A00205539636F72723A2535E1
:100C03002E336656200A0020553130636F72723AD4
:100C130025342E336656200A0020553131636F7216
:100C2300723A25342E336656200A0A002055626C28
:100C33006F636B3A25352E3366560A0A00205564D6
:100C43006966663A25362E336656200A00205561BA
:100C53007665723A25362E336656200A000A2055E9
:100C6300306469673A2564200A0020553164696756
:100C73003A2564200A002055326469673A256420C6
:100C83000A002055336469673A2564200A00205519
:100C9300346469673A2564200A002055356469671E
:100CA3003A2564200A002055366469673A25642092
:100CB3000A002055376469673A2564200A002055E5
:100CC300386469673A2564200A00205539646967E6
:100CD3003A2564200A00205531306469673A256457
:100CE3000A00205531316469673A25640A0A0020F5
:100CF300626C6F636B6469673A25640A0A00535434
:100D0300415445202D204E6F726D616C2053256236
:100D1300750A005354415445202D2043656C6C43A0
:100D23006F6E20696E76616C69640A005354415496
:100D330045202D204E6F20436F6D2C205325627864
:100D43002067657473206E6F2072657175657374A7
:100D53000A005354415445202D2053796E63680A89
:100D6300005354415445202D20426C6F636B436FF5
:100D73006E20696E76616C69640A00535441544570
:100D8300202D205265736574532562750A005374D0
:100D930061746520756E6B6E6F776E2121210A0079
:100DA300457261736520536563746F7273203020DD
:100DB300616E6420310A002054656D70313A253626
:100DC3002E316643200A2054656D70323A25362E43
:100DD300316643200A2054656D70333A25362E312F
:100DE3006643200A002054626F6172643A25352EEF
:100DF300316643200A0A00205530636F72723A2528
:100E0300352E326656200A00205531636F72723ACE
:100E130025352E326656200A00205532636F7272D2
:100E23003A25352E326656200A00205533636F72F9
:100E3300723A25352E326656200A00205534636FE8
:100E430072723A25352E326656200A0020553563D4
:100E53006F72723A25352E326656200A00205536B7
:100E6300636F72723A25352E326656200A0020557A
:100E730037636F72723A25352E326656200A002088
:100E83005538636F72723A25352E326656200A0042
:100E9300205539636F72723A25352E326656200A11
:100EA3000020553130636F72723A25342E32665604
:100EB300200A0020553131636F72723A25342E3285
:100EC3006656200A0A000A2D2D2D0A000A426F7465
:100ED300746F6D42616C616E63653A2562640A00EA
:100EE3000A494E54455220426C6F636B2042616C39
:100EF300616E63653A2562640A000A546F70426149
:100F03006C616E63653A2562640A004572726F72A2
:100F13003A205563656C6C5B2562645D206F766572
:100F230072206C6576656C0A004572726F723A20A6
:100F33005563656C6C5B2562645D20756E646572D8
:100F4300206C6576656C0A005761726E696E673A4C
:100F530020542562642053686F72744375740A00C9
:100F63005761726E696E673A2054256264204F7030
:100F7300656E0A004572726F723A205425626420CE
:100F83006F766572203735430A004572726F723A85
:100F93002055626C6F636B20756E646572206C659F
:100FA30076656C0A00536C6176653A2053657276F8
:100FB300696365206D6F64650A000A2D3E77726F61
:100FC3006E6720536C6176652049442C20706F73E3
:100FD3006974696F6E2030784620697320616C7282
:100FE3006561647920726573657276656421212178
:100FF3000A0020556469673A2564200A00E5132432
:1010030052F582E434F1F583E005132290F14F3079
:10101300120390F152E475F0011208FA02059620CA
:101023000BE97F2ED20B8018EF540F2490D4344059
:10103300D4FF300F0BEF24BFB41A0050032461FF19
:10104300E514600215140517E51770020516301232
:101053000E90F14FE475F0011208FAEF0205DC027D
:10106300205E7403D2128003E4C212F51390F14F91
:10107300120928E4F514F516F517E51460077F2027
:1010830012104380F57515FFC20CC20BC20DC20EC0
:10109300C210C211C21312100FFF700D3012057F60
:1010A30000121054AF17AE1622B4255FC2D5C20F7B
:1010B30012100FFF24D0B40A00501A75F00A7814E6
:1010C30030D50508B6FF0106C6A426F620D5047060
:1010D30002D20E80D924CFB41A00EF5004C2E5D255
:1010E3000F021346D20C80C6D20B80C0D20D80BC37
:1010F300D2D580BAD21080B47F20121043200D07BE
:101103007401B5140040F1121000FF1210430210D5
:101113007DD213D2118095121000FB121000FA1227
:101123001000F94A4B700679447A147BFF200D2E88
:10113300E514602A7E008E827583001205AF600677
:101143000EEE651570F0C2D5EBC0E0EAC0E0E9C071
:10115300E0EE1213A7D0E0F9D0E0FAD0E0FB1205DD
:1011630096FF60AAEBC0E0EAC0E0E9C0E0121043DA
:10117300D0E02401F9D0E03400FAD0E0FBE5150417
:1011830060DCD515D98087D20D80A212138960F750
:10119300E5157001041203D3A915600DE515600967
:1011A30014F515121431EF60F3EA30E702F404C3C7
:1011B300995079EAF425150430E701E404F5158024
:1011C3000D12138960C1EA051525151203D3EA90A0
:1011D300F17EF030E701E4251504D5150420100154
:1011E300141213A7E4C0E012143190F17EE06013EF
:1011F30020E70714F012102B802204F0D0E014C073
:10120300E07F0012102BE5156007121022151580E0
:101213000B301003121022D0E002107DD0E00480C6
:10122300C4121389609EE515041203D390F17EEA7C
:10123300F0E51520100260010424041213A774FFC3
:1012430004C0E012143112102BE5152010026003C4
:10125300121022D0E0B515E87F4512103590F17ECB
:10126300E07F2B30E7047F2DF404C0E0121043D05D
:10127300E075F00A84C0F012102CD0E012102C029A
:10128300107D791080027908C211C2138008D2D56B
:10129300790A8004790AC2D5E515047002F515E4CC
:1012A300FAFDFEFF121000FC7B08200C1312100045
:1012B300FD7B10300B0A121000FE121000FF7B2082
:1012C300EC3382D592D55013C3E4300B069FFFE471
:1012D3009EFEE4200C039DFDE49CFCE4CBF8C20CD1
:1012E300EC700CCFCECDCCE824F8F870F38017C3A4
:1012F300EF33FFEE33FEED33FDEC33FCEB33FB99C1
:101303004002FB0FD8E9EB300C05F8D0E0C448B23B
:101313000CC0E00AEC4D4E4F78207B0070C2EAB55A
:10132300150040BCC0E01213A9D0F0D0E0200C049B
:10133300C4C0E0C4B20CC0F012102CD0F0D5F0EB56
:1013430002107D120931111A5312855810EB4C10FB
:10135300E74212894F1291441291491100431297A7
:101363005511C446122445118E4714645010EF2DB5
:1013730010F32E11162B10F723111420144D2A10DD
:10138300AF480000110EE515B4FF037515061210E2
:1013930000FC121000FD121000FE121000FF90F16D
:1013A30077020410790AA2D5200E14301009B9105F
:1013B300020404B9080104A2D5201102500104203B
:1013C3000D68920DB514005034C0E07F20300E1923
:1013D3007F30A20D72117210500F121400C20DC291
:1013E30011C210C2137F30800F301003E9C0E01226
:1013F3001043301003D0E0F9D0E0B514CC3010170F
:101403007F30B9100C1210437F58300F077F78805C
:1014130003B90803121043300D057F2D0210437FDB
:10142300202013F87F2B2011F322920D80CF7F0011
:10143300B40700500B2477F582E434F1F583E0FF21
:1014430022286E756C6C2900D20C121000300CF837
:10145300C20C781430D50108F60210AF2D50434961
:10146300581210002403B405004001E490145F9364
:10147300121034743A121034D20E75140402128509
:101483000A0A2D2053657276696365204D6F646582
:10149300202D20707265737320616E79206B6579DE
:1014A30020746F2073746172740A00732020203DCE
:1014B3002073696E676C65207363616E0A00622036
:1014C30020203D20626F74746F6D2031780A0074A0
:1014D3002020203D20746F702031780A006920207D
:1014E300203D20696E74657220626C6F636B2031DE
:1014F300780A006D2020203D207363616E2B6261AA
:101503006C616E63696E67202873656C6563742014
:101513006D6F6465290A00752020203D2073636187
:101523006E2B62616C616E63696E6720286E6F72E9
:101533006D616C206D6F6465290A00632020203D76
:101543002063616C6962726174696F6E0A00722054
:1015530020203D2077726974652F7265616420666F
:101563006C6173686564206572726F72730A0053ED
:101573005420203D20626F6172642053656C665471
:101583006573742073776974636820533320746FB1
:1015930020460A000A20426F74746F6D42616C61C9
:1015A3006E63696E672031782E2E2E20656E74650A
:1015B3007220746865206261747465727920636552
:1015C3006C6C3A200025627500207072657373207D
:1015D300616E79206B657920746F20726570656127
:1015E30074206F72204553430A000A457363617088
:1015F300652E2E2E2E2E0A000A20546F7042616C27
:10160300616E63696E672031782E2E2E20656E74AD
:1016130065722074686520626174746572792063F1
:10162300656C6C3A20000A20496E746572426C6FD7
:10163300636B42616C616E63696E672031782E2E35
:101643002E20656E746572207468652062617474FF
:101653006572792063656C6C3A20000A20577269C1
:1016630074652F5265616420666C617368656420DC
:101673006572726F7273202F204553430A000A204C
:1016830053696E676C65207363616E2E2E2E0A009C
:101693000A2042616C616E63696E672031782E2E79
:1016A3002E20656E7465722074686520626174749F
:1016B3006572792063656C6C2028302D3131293AAD
:1016C300200020546F70202F20426F74746F6D20A0
:1016D3002F20496E7465722042616C616E63696E7E
:1016E300672028742F622F69293A20002563000A96
:1016F300205363616E2B42616C616E63696E672E6A
:101703002E2E2873656C656374206D6F6465290ADA
:10171300006661756C740A000A205363616E2B4284
:10172300616C616E63696E672E2E2E286E6F726D0B
:10173300616C206D6F646529202F204553430A0097
:10174300456E7465722074686520626C6F636B20EC
:10175300766F6C746167653A0025660076616C7517
:101763006520252E3366200A00676F275B25627587
:101773005D3A252E34660A00456E746572207468DE
:1017830065202562752E2062617474657279206309
:10179300656C6C3A00676F275B2562755D3A252E91
:1017A30033660A00446F20796F752077616E742069
:1017B300746F20666C61736820792F6E3F0A006531
:1017C30072726F72202D2063616C2E6661632E200E
:1017D30063656C6C256264202121210A00657272A5
:1017E3006F72202D2063616C2E6661632E20626C04
:1017F3006F636B3A202121210A0043616C69627295
:101803006174696F6E20636C6F7365640A0053655E
:101813006C662D546573743A0A000A204C45445F84
:1018230043656C6C4F7665724C6576656C0A000A8D
:10183300204C45445F43656C6C556E6465724C6522
:1018430076656C0A000A204C45445F426C6F636BFB
:10185300556E6465724C6576656C0A000A204C45CA
:10186300445F54656D704F7665724C6576656C0A9E
:10187300000A204C45445F54656D7053656E736F69
:10188300720A000A204C45445F424F4152445F4F65
:101893004B41590A00E50830030104F82328241AB0
:1018A300F582E434F1F5832290F11730030390F1CC
:1018B3001AE475F0011208FA02059660EAC50C7085
:1018C30002150B14C50C200304FF02213590F117F8
:1018D30074FFF5F0020911FF022107E5096006D53F
:1018E30009037F002220030F12005AEF6008050C42
:1018F300E50C7002050B2290F1171208F112059600
:10190300FF60E890F117E475F0011208FA80DC1229
:1019130018E8EFC0E01218DAD0E040F3809DD2035C
:101923008002C20390F117120928E4F50AF508F5BD
:101933000BF50C750900C202C200C201C2041218E1
:10194300ABFF7005AF0A7E0022B425301218ABFF3F
:1019530024D0B40A00500C75F00AC509A42509F572
:101963000980E924CFB41A00EF5002C2E5021BBE7E
:10197300D20180D8D20080D4D20480D0EF1218DAFA
:101983005008121912EF600E80A9EFC0E01218E898
:10199300D0E06F609EEF60741218BE80A71218E843
:1019A300EF6069E5097007050980031218E8EF6025
:1019B3001420040E121898E475F0011208FAEF12BD
:1019C30005DCD509E62004040508050A80BA1218C7
:1019D300DEEFC0E01218DAD0E050041218BEE4FFC4
:1019E30020040E121898E475F0011208FAEF12059C
:1019F300DCEF70DA2004040508050A808BE5096032
:101A03000205091219121218DEEF70C6300304E43E
:101A13001218BEE50A60030219477EFF7FFF22E525
:101A23000960020509121912D206D2051218DEEF57
:101A330030060260D7C0E01218BED0E0AC0DAD0E88
:101A4300AE0FAF10121EB48C0D8D0E8E0F8F105073
:101A5300071218E8C20580D4200410200502050AE5
:101A63001218981208F1050812084A021936D0E034
:101A7300809A7900800A7910800679088002790AB1
:101A8300D205E50960020509E9C0E0121912EF6009
:101A9300DD1218E8BF2D04D2028003BF2B091219EF
:101AA30012EF60CA1218DED0E0B40A028033B40821
:101AB30002802EBF302770027408C205C0E01218DE
:101AC300DED0E0BF78028003BF58160509D50902AE
:101AD3008007D50904D205800B7410801970027435
:101AE3000ABF000AEFF8E4FCFDFEFF021B71C0E031
:101AF300EF1218BED0E0F9E4FCFDFEFFE9C0E0EC14
:101B0300C0E0EDC0E0EEC0E0EFC0E01218DEEFF899
:101B1300D0E0FFD0E0FED0E0FDD0E0FCD0F0E86004
:101B23004DB461004007B47B005002C2E524D0509D
:101B33003DFA24F6500724F95034240AFAEAB5F0A2
:101B430000502BCFA9F0A42FFF92D5E9C5F0CEA466
:101B5300A2D53EFE92D5E9C5F0CDA4A2D53DFD9216
:101B6300D5E9C5F0CCA4A2D53CFCC205808EE8C063
:101B7300E020042A200508050A3002031207B512E3
:101B830018981208F1050820000B20010DEE8FF0C4
:101B9300120769800912084A8004EF1205DCD0E0BD
:101BA3001218BE0219362004101218981208F105F3
:101BB30008E50B850CF012076980E81209311A0059
:101BC300531A795819774C197342194F481A7D4F94
:101BD3001A814419A0431A75491A81551A22461AC3
:101BE30022451A2247197B2A1BA94E0000197F722E
:101BF3006561642066726F6D20466C617368416431
:101C0300723A307825780A002D3E206E657874206C
:101C1300656D70747920466C6173684164723A3003
:101C23007825780A004572726F723A2077726F6E68
:101C33006720666C61736820736563746F7221211A
:101C4300210A0A007772697474656E20746F2046E6
:101C53006C6173684164723A30782578200A0052C7
:101C630065616420666C6173686564204572726F98
:101C73007273202830782578293A0A002D20536C76
:101C8300617665476574734E6F50696E673A2025B8
:101C930062750A002D20426C6F636B556E6465722A
:101CA3004C6576656C3A202562750A002D205465D3
:101CB3006D7053686F72744375743A202020202529
:101CC30062750A002D2054656D704F70656E3A2061
:101CD300202020202020202562750A002D20546515
:101CE3006D704F7665726C6576656C3A202030783E
:101CF3002562780A002D2043656C6C556E6465720D
:101D03006C6576656C3A2030782562780A002D2060
:101D130043656C6C4F7665724C6576656C3A202032
:101D230030782562780A000A626F617264207061FC
:101D330072616D6574657220666C61736865642099
:101D43006174206164647265737320307825782030
:101D53000A0A000A5265616420466C617368204375
:101D6300616C2E204661632E3A0A002063616C2E5B
:101D73006661632E2063656C6C2562753A20252E9F
:101D830034660A002063616C2E6661632E20626CE8
:101D93006F636B3A20252E34660A006024F2DFFF5E
:101DA300006EFF40DBFF40DEFF40E1FF40E4FF4009
:101DB300E7FF40EAFF40EDFF40F0FF40F3FF40F64E
:101DC300FF40F96024F303FF40FCFF40FFFF4102A3
:101DD300FF4105FF4108FF410BFF410EFF4111FF8A
:101DE3004114FF4117FF411AFF411D4CF327FF46E2
:101DF30051FF43C7FF4559FF47B641F33300602006
:101E0300F25F0485048D0495049D04A504AD04B517
:101E130004BD04C504CD04D504DD04E504ED04F5D7
:101E230004FD6020F27F0484048C0494049C04A4C5
:101E330004AC04B404BC04C404CC04D404DC04E43F
:101E430004EC04F404FC6020F29F0487048F0497DD
:101E5300049F04A704AF04B704BF04C704CF04D787
:101E630004DF04E704EF04F704FF6020F2BF00017E
:101E73000002000400080010002000400080010060
:101E8300020004000800100020004000800043F21C
:101E93005C01F18241F17F0442F180000000C2073E
:101EA300C208C209C20AF9E4F511F512FCFDFEFFEE
:101EB300E91006EA20090CB42D04D209D322B42B6D
:101EC30002D32224D0504794095041240A300A15E2
:101ED300F88512F0740AA42872E74051C5F0704DDA
:101EE30085F012D322D208C0E0E4FBFA79207841CE
:101EF30012016EECF8EDF9EEFAEFFBD0E0FCE41220
:101F0300031E12007D3007B41511D322240A200AC0
:101F130020B4FE0720071AD207D32224EB6004243F
:101F2300E0700EA2099207D20AC209D322C30203A8
:101F3300BEE4300A0BE512300902F404A207920949
:101F43003008EA251120D2E5A2E7920A5002F404F0
:101F5300B4260050D8CCC0E0EDC0E0EEC0E0EFC046
:101F6300E0EC120556D0E0FFD0E0FED0E0FDD0E07B
:101F7300FC200A0512016E80031202773009031256
:101F83000515C32275BF0143B70843B70443B6041D
:101F930053B6F7780AD9FED8FC43B602E5B620E17A
:101FA300FB30E0F543B70853B7FB75BB9853B70F46
:101FB30043B7A043B702E5B730E0FB53B7F775BFAC
:101FC30000787FE4F6D8FD90F0007F007E06E4F011
:101FD300A3DFFCDEFA75815D022019022665E49316
:101FE300A3F8E493A34003F68001F208DFF4802909
:101FF300E493A3F85407240CC8C333C4540F4420F8
:10200300C8834004F456800146F6DFE4800B0102E6
:10201300040810204080901D9EE47E019360BCA3C1
:10202300FF543F30E509541FFEE493A360010ECF34
:1020330054C025E060A840B8E493A3FAE493A3F85E
:10204300E493A3C8C582C8CAC583CAF0A3C8C5821E
:10205300C8CAC583CADFE9DEE780BEEFB40A0774E6
:102063000D122069740A309811A899B8130CC298FC
:102073003098FDA899C298B811F63099FDC299F528
:102083009922464E4D49504C4C0A00464E4D4956F6
:1020930044440A00464E4D49564444500A00464EB5
:1020A3004D494543430A008E198F188C1C8D1BE440
:1020B300F51DF51EF51FC0D043D01812DFF94004FB
:1020C300D0D0D322D0D0C3224572726F72547970AC
:1020D300653A203078256278204572726F724944E0
:1020E3003A2030782562780A008F18C0D043D01880
:1020F3000000000000000012DFF64004D0D0D3221D
:10210300D0D0C322EFC394094005EF940E4004EFEF
:10211300B42003D38001C322C0D0EF12DFF05004F8
:10212300D0D0D322D0D0C3223098FDAF99C2987EAD
:10213300002290F334EFF0D2142275B20175864475
:10214300E4F5B27586B875B201759103F5B2759170
:10215300FC75B1F375C90B2275BF0175BA10E4F5AF
:10216300BF313D1247FB1247DDF1F8124086318241
:1021730075B820E4F5B975F82075F930D2AF22D1DE
:102183005E75DC01E5DC30E00553D8FE80F675DAD8
:102193000075D98075DB4175D815E5D820E1FB754D
:1021A300DA0075D9C075DB4175D815E5D820E1FB98
:1021B30075D804E4F5DB75DC6075D835E5D820E126
:1021C300FB75DB01E4F5DC75D835E5D820E1FB755B
:1021D300DB4175DCD475D835E5D820E1FB75DD60CE
:1021E30075D845E5D820E1FBE4F5DBF5DCF5DD75D5
:1021F300D871E5D820E1FB75B20243B00843B108BA
:10220300E4F5B243B108F5DA75D9717F02FEFDD169
:10221300117D01D1117D02D1117D037C02B168D101
:102223000B7D05D1117D10D1117D11D1117D12D1FD
:10223300117D13D1117D14D1117D15D1117D16D1CD
:10224300117D17D1117D18D1117D19D1117D1AD1AD
:10225300117D1BD1117D1CD1117D1DD1117D1ED18D
:10226300117D1F7C02B16875DA0475D907D1287C0A
:102273000EB1627F007E007D207CD9B148B178B178
:10228300627F04B14FD11A75D90FD1287C0EB16288
:102293007F007E007D247CD9B148B178B1627F0490
:1022A3007E01B151D11A75D917D1287C0EB1627F45
:1022B300007E007D287CD9B148B178B1627F047E6D
:1022C30002B151D11A75D91FD1287C0EB1627F009A
:1022D3007E007D2C7CD9B148B178B1627F047E0346
:1022E300B151D11A75D9277F007E007DA0B1607FDF
:1022F300007E007D007CCCB148B178B1627F047E62
:1023030004B151125563D12275D92FD1287C0EB156
:10231300627F007E007D007CC8B148B178B1627FE6
:10232300047E05B151125563D12275D987D1287C1A
:102333000EB1627F007E007D20B146B178B1627F2D
:10234300007E10B151D11A75D98FD1287C0EB1629C
:102353007F007E007D24B146B178B1627F007E119B
:10236300B151D11A75D997D1287C0EB1627F007E05
:10237300007D28B146B178B1627F007E12B151D1A0
:102383001A75D99FD1287C0EB1627F007E007D2C07
:10239300B146B178B1627F007E13B151D11A75D9BC
:1023A300A7D1287C0EB1627F007E007D30B146B19B
:1023B30078B1627F007E14B151D11A75D9AFD1289B
:1023C3007C0EB1627F007E007D34B146B178B1628C
:1023D3007F007E15B151D11A75D9B7D1287C0EB1C2
:1023E300627F007E007D38B146B178B1627F007EA6
:1023F30016B151D11A75D9BFD1287C0EB1627F00B5
:102403007E007D3CB146B178B1627F007E17B15149
:10241300D11A75D9C7D1287C0EB1627F007E007DA9
:1024230040B146B178B1627F007E18B151D11A75BF
:10243300D9CFD1287C0EB1627F007E007D44B146A6
:10244300B178B1627F007E19B151D11A75D9D7D154
:10245300287C0EB1627F007E007D48B146B178B121
:10246300627F007E1AB151D11A75D9DFD1287C0E53
:10247300B1627F007E007D4CB146B178B1627F00CE
:102483007E1BB151D11A75D9E7D1287C0EB1627F79
:10249300007E007D50B146B178B1627F007E1CB1F1
:1024A30051D11A75D9EFD1287C0EB1627F007E001D
:1024B3007D54B146B178B1627F007E1DB151D11A0E
:1024C30075D9F7D1287C0EB1627F007E007D58B1AB
:1024D30046B178B1627F007E1EB151D11A75D9FF22
:1024E300D1287C0EB1627F007E007D5CB146B1785D
:1024F300B1627F007E1FB1517F007E007D007C08AA
:10250300B11F75DA0075D9C0E4F5D8E5D820E1FB31
:1025130053DBBE75D811E5D820E1FB2290F01012F1
:10252300088490F013E0F5DB90F012E0F5DC90F016
:1025330011E0F5DD90F010E0F5DE75D8F1E5D82077
:10254300E1FB227CDDB11F75D8087F007E007D0092
:102553007C00B11F75D8087F007E007D007C00B130
:102563001F75D80822B11F75DC01E5DC30E0055387
:10257300D8FE80F6227FFF7EFF7DFF7C3F22D15E67
:102583007F027E007D007C00D1137D017C00D1138E
:102593007D027C00D1137D037C00D1137D047C007C
:1025A300D1137D057C00D1137D107C00D1137D11E7
:1025B3007C00D1137D127C00D1137D137C00D113D9
:1025C3007D147C00D1137D157C00D1137D167C0016
:1025D300D1137D177C00D1137D187C00D1137D1995
:1025E3007C00D1137D1A7C00D1137D1B7C00D11399
:1025F3007D1C7C00D1137D1D7C00D1137D1E7C00CE
:10260300D1137D1F7C00A1687F027E007D047C02C4
:10261300B1687F027E00227F007E007D007C08B1CE
:102623001F75DA04227F007E007DA82290F00FEF51
:10263300F0D15ED10B7D057C02B16890F00FE0FF15
:102643003395E0FEFDFCEF2410124A587810120770
:10265300E7EF4402FFEC4402FCA16875DA0075D988
:102663007122315BD299F1EF7BFF7A0A792512103F
:102673006B90F0047401F0A374F1F0A37482F090F2
:10268300F002E4F0A374DAF0E490F000F0A3F09029
:10269300F002E0FEA3E0FF90F000E0FCA3E0FDC346
:1026A3009FEC9E501D90F004F1A28D828C83E41266
:1026B30005EE90F001E004F0700690F000E004F005
:1026C30080CDE490F1E1F090F000F0A3F090F00001
:1026D300E0FEA3E0FFC3940CEE9400501D90F303BF
:1026E300125395F583F1A412095790F001E004F019
:1026F300700690F000E004F080D3C2B753BCFDF144
:10270300EF90F15274FFF0A3740AF0A3745CF0A38A
:1027130074FFF0A3740AF0A37468F0A374FFF0A32A
:10272300740AF0A37471F07BFF7A0A792C12106B90
:1027330090F25CF1A212297C90F25CF1A2122A328F
:1027430080F690F117EBF0A3EAF0A3E9F07BFF7AB0
:102753000A799412106B7BFF7A0A799912106B7BBA
:10276300FF7A0A79A812106B90F117E0FBA3E0FA45
:10277300A3E0F990004E1206E4FF90F152E5F0F069
:10278300A3EFF090004C1206E4FF90F154E5F0F053
:10279300A3EFF07BFF7A0A79AD12106B90F117E08B
:1027A300FBA3E0FAA3E0F92290F00C122E50A3F160
:1027B300A212335230E42590F012F1A212549094F5
:1027C30096EE9400400C90F00FF1A2125489F1A2FE
:1027D300F1E990F00CF1A274020205DC90F00CF127
:1027E300A21253F1F1A2E4F5F00207697BFF7A0A22
:1027F300792002106BE4F5D175CA1075CC5175D1EF
:1028030001F5CA75CB0175CC0275CD03F5CE75CF35
:102813000175D20275D303F5D175CE0375D1047555
:10282300CAC075CBC075CCC075CDC075D105F5CD0B
:10283300F5D3F5D175CDB775CF0275D10675CD0535
:10284300F5CCF5D143CA8022F0E4FBFDFFE4FEEFB3
:10285300B401027E80EDB4010474402EFEEBB4019A
:102863000474202EFE90F120E054072E75D196F5C6
:10287300D275D1D022D14DE490F120F031397401D9
:102883003137740231377403114B123804BFF1FA34
:10289300124032A60712406D7829A60608A6077FC4
:1028A300F1123F797825E6FE08E6FF314812279FAB
:1028B30090004431427827E6FE08E6FF31481227AC
:1028C3009F90004631427829E6FE08E6FF31481220
:1028D300279F900048314290F120740431377405EA
:1028E30031377406114B123804BF71FA124032A605
:1028F300077F71123F791237CBFF314812279F9020
:10290300004A31427825E6FF08E690001CCF8FF09D
:10291300123FD3FE08E6FF90003631427C377D003C
:102923001206107C0412062212279F90001AEE8FC3
:10293300F0020788F0E4FBFDFF115090F12022EE36
:102943008FF002078812419212418A75B7D175B68A
:102953006675B110E5B020E2FB782BA6B508A6B4E6
:10296300538FFE18E6FE08E67806CEC313CE13D8BF
:10297300F92414FFEE34FFFE22D14D7BFF7A1D793B
:102983005612106BE490F11AF090F11AE0FFC39421
:102993000C5058EF75F002A424E0FFE5F034BF12A9
:1029A300365BFE740193FF12379612530CA3E0FDBE
:1029B30075F002A4F58285F083314290F152EDF077
:1029C30012379612530C75F002EDA4F58285F0834D
:1029D300F11078461202771253147BFF7A1D796E39
:1029E30012106B90F11AE004F0809E90BFF8E4930C
:1029F300FE740193FF12279F900078314212279FA4
:102A0300123FAA12419A51267A1D798702106B90C0
:102A130000161206E4FDACF0E4120319E4FBFA79A4
:102A230080784512027790F1521208847BFF22903E
:102A3300F007D150E4A3F0A3F090F17FE014605BC2
:102A430014700241D31470026119147002614214AC
:102A5300700261032405600261A490F0071227A2AB
:102A630090005C1234CB7A0D7901B11A1227A212AD
:102A7300552F1227A212428290F0071227A2125555
:102A83004B1227A212335890F0071227A2123D24AB
:102A930090F0071227A21234D56190D292C2967B8E
:102AA300FF7A0D7916B11A1227A212428290F0070B
:102AB3001227A212554B1227A21234D590F00712F7
:102AC3004A4E90F00FC9D1511254BB12544161AD1B
:102AD300C292D29690F0071227A290005C1234CBD8
:102AE3007A0D792FB11A1227A212335890F00712D8
:102AF3004A4E90F00FC9D1511254BB1227AB61ADAE
:102B03007BFF7A0D7955B11A1227A212552F12277E
:102B1300A2123D248077D292D2967BFF7A0D7964FC
:102B2300B11A1227A212552F1227A212554B124A7D
:102B33004E90F00FC9D1511254BB1253FA806B90CF
:102B4300F0071227A290005C1234CB7A0D797EB184
:102B53001A1227A21248CB90F0071227A21235931C
:102B630090F0071227A212552F1227A212309E901F
:102B7300F0071227A21249AFEF600990F00712275E
:102B8300A212340C90F0071227A212335890F007C8
:102B9300124A4E90F00FC9D1511254BB1253A48064
:102BA300097BFF7A0D799112106B90F0071227A21F
:102BB3009000C2E41205EE9000C4E41205EE53BC8B
:102BC300FD209802A119C298E5996465702A12370D
:102BD300D97F0412211B50F97D017C001237C57F78
:102BE3000412211B50F990F0071227A21248CB7B45
:102BF300FF7A0D79A312106BE59964706002A1024C
:102C030090F0071227A2900044123FADEC12031973
:102C130012551590F0071227A2900046123FADEC13
:102C230012031912552090F0071227A290004812A0
:102C33003FADEC12031990F15A1208847BFF7A0D11
:102C430079BAB11A1227A290004A123FADEC1203CF
:102C53001951297A0D79E8B11A1227A21206845163
:102C6300187A0D79FAB11A1227A290000251157A37
:102C73000E790BB11A1227A290000451157A0E791E
:102C83001CB11A1227A290000651157A0E792DB1A4
:102C93001A1227A290000851157A0E793EB11A1222
:102CA30027A290000A51157A0E794FB11A1227A262
:102CB30090000C51157A0E7960B11A1227A2900078
:102CC3000E51157A0E7971B11A1227A29000105184
:102CD300157A0E7982B11A1227A290001251157A31
:102CE3000E7993B11A1227A290001451157A0E7916
:102CF300A4B11A1227A251127A0E79B612106BE5FB
:102D030099B4721290F0071227A21248CB90F007E1
:102D13001227A21235932212106B90F0072212276A
:102D23004590003AF11012551012279FF10D1255DC
:102D33001B7BFF7A0B790D12279C9000441206E44B
:102D4300FF90F152E5F0F0A3EFF0123F9990F154A8
:102D5300E5F0F0A3EFF0123F9190F156D1637A0BB7
:102D6300792812279C90004AD15C7A0B795012275C
:102D73009C12068451187A0B796012279C900002EA
:102D830051157A0B797112279C90000451157A0B17
:102D9300798212279C90000651157A0B799312279A
:102DA3009C90000851157A0B79A412279C90000A75
:102DB30051157A0B79B512279C90000C51157A0B9B
:102DC30079C612279C90000E51157A0B79D71227DA
:102DD3009C90001051157A0B79E812279C900012F1
:102DE30051157A0B79F912279C90001451157A0C1E
:102DF300790A12279C51127A0C791C12279C900095
:102E03001AF110784351267A0C792F12279C9000DF
:102E13003AF1107845120277C004C005C006C00716
:102E230012279FF10D7845120277D003D002D0010B
:102E3300D00012007951297A0C794012279C900016
:102E43003E51157A0C795002106B90F117EBF0A3F9
:102E5300EAF0A3E9F0229000CF1206E4FF90F152CA
:102E6300E5F0F0A3EFF07BFF22D14D12279F9000F6
:102E73001ED15C7A0C796012279C900020D15C7A79
:102E83000C796D12279C900022D15C7A0C7979120F
:102E9300279C900024D15C7A0C798512279C9000A2
:102EA30026D15C7A0C799112279C900028D15C7A08
:102EB3000C799D12279C90002AD15C7A0C79A91277
:102EC300279C90002CD15C7A0C79B512279C90003A
:102ED3002ED15C7A0C79C112279C900030D15C7A98
:102EE3000C79CD12279C900032D15C7A0C79D912DF
:102EF300279C900034D15C7A0C79E512279C9000D2
:102F030036D15C7A0C79F202106B9000381206E429
:102F1300FDACF0E4120319E4FBFA79802212274591
:102F230090003AF11012551012279FF10D12551B04
:102F33007BFF7A0A79C412279C90001AF110784318
:102F430051267A0A79DE12279C90003AF1107845CF
:102F5300120277C004C005C006C00712279FF10DF7
:102F63007845120277D003D002D001D00012007945
:102F730051297A0A79EF12279C90003E51157A0A5B
:102F830079FE02106B90F00CD15090F00C1227A236
:102F9300117890F00C1227A2123DD890F00C122752
:102FA300A2D14D12279F90004C1206E4D39418E54A
:102FB300F064809481401DE924C312308D440112D2
:102FC30005DC12279F9000581234CB7A0F794B12ED
:102FD300106B800D12379624C312308D54FE1205E8
:102FE300DC12279F90004E1206E4C39424E5F0649C
:102FF30080947F501CE924C312308D44021205DCF7
:1030030012279F90005B91CB7A0F796312106B802C
:103013000BF19624C3118D54FD1205DC12279F90EA
:10302300004C1197D3944BEE648094804027EF9427
:103033000EEE64809481501DE924C2118D44041165
:103043007E44011205DC12279F90005891CB7A0F22
:10305300797712106B12279FF1F2D39400E5F09465
:10306300055017E924C2118D4440117E4401120515
:10307300DC7BFF7A0F798D12106B221205DC90F145
:1030830017E0FBA3E0FAA3E024C4F9E43AFA02054B
:103093009690001C1206E4FFAEF02290F00C122E64
:1030A3005090F00C1227A290001C1206E4C394DF88
:1030B300E5F09403402290005C74FF1205EE7BFF61
:1030C3007A0F79A812106B1225817FF012262F90A8
:1030D300F00C1227A2124A6B90F00C1227A2119443
:1030E300C374A09F74039E500FC3EF94DFEE940349
:1030F300500690005CE4419990F00C1227A21194C1
:10310300C374669F74039E500FEF94A0EE94035014
:103113000790005C7401419990F00C1227A211945E
:10312300C374379F74039E500FEF9466EE9403505D
:103133000790005C7402419990F00C1227A211943D
:10314300C3740C9F74039E500FEF9437EE94035097
:103153000790005C7403419990F00C1227A211941C
:10316300C374E39F74029E500FEF940CEE940350CC
:103173000790005C7404419990F00C1227A21194FB
:10318300C374BE9F74029E500FEF94E3EE940250FB
:103193000790005C7405419990F00C1227A21194DA
:1031A300C374A09F74029E500FEF94BEEE9402501E
:1031B3000790005C7406419990F00C1227A21194B9
:1031C300C374839F74029E500FEF94A0EE94025039
:1031D3000790005C7407419990F00C1227A2119498
:1031E300C374669F74029E500FEF9483EE94025053
:1031F3000790005C7408419990F00C1227A2119477
:10320300C3744E9F74029E500FEF9466EE94025067
:103213000790005C7409807E90F00C1227A2119431
:10322300C374379F74029E500FEF944EEE94025076
:103233000790005C740A805E90F00C1227A2119430
:10324300C374239F74029E500FEF9437EE94025081
:103253000790005C740B803E90F00C1227A211942F
:10326300C3740E9F74029E500FEF9423EE9402508A
:103273000790005C740C801E90F00C1227A211942E
:10328300C374FC9F74019E5026EF940EEE9402507B
:103293001E90005C740D1205EE12258190F00C1245
:1032A30027A2F1E112262F90F00C1227A2E1E17B75
:1032B300FF7A0F79BD12106B80FE122E4D12279FDD
:1032C300715230E00E9000B61205AF24F09000D694
:1032D3001205EE12279F715230E115F1AC120596DB
:1032E30024F0FF90F1171227A49000D7EF1205EEF8
:1032F30012279F715230E20E9000581205AF24F04E
:103303009000D81205EE12279F715230E40AE92487
:10331300D9118D44021205DC12279F715230E60A3F
:10332300E924D9118D44081205DC12279FF18A3054
:10333300E00AE924D9118D44101205DC12279FF10C
:103343008A30E10AE924D9118D44201205DC229048
:1033530000C20205AF90F00C122E50E4A3F07823C4
:10336300F608F690F00C1227A2F1F85002810875C6
:10337300DA0475D927E4F5D8E5D820E1FB124A63CE
:1033830030E06E90F00CF19924C2118D54EFF1D21C
:10339300118454FB1205DC75DA0475D924E4F5D8DD
:1033A300E5D820E1FB7823A6DC08A6DB90F00C121D
:1033B30027A290005C1205AF123BAC74BF2FF582BD
:1033C30074F23EF583F1CBFFE05EFEA3E05F4E9027
:1033D300005F600474018001E41205EE75DA047580
:1033E300D92775DB0175D811E5D820E1FBF1CBFFB7
:1033F3002290F00CF19924C2118D4410F1D2118462
:1034030044041205DCE4FEFF2290F015122E5090C6
:10341300F0151227A2F1F840437152FF545770067A
:1034230091605405603690F0151227A2916090F1D7
:1034330052122E657A2079CB12106B75DA0475D986
:103443002C90F0151227A29160F5DB7152F5DC7513
:10345300D831E5D820E1FB7F0512488A229000C4C9
:103463000205AF122E4D12279FF184D394CCE5F0C1
:103473009424401AE924C2118D4401117E4401129F
:1034830005DC12279F91C87A0F790E12106B122751
:103493009F90003A1206E4C39499E5F094015024F6
:1034A30090F117A3A3E024C2118D4402117E4401BD
:1034B3001205DC12279FF1AC12059691CE7A0F7993
:1034C3002C12106B229000B61205AF90F152F07BD4
:1034D300FF22122E4D90003E1197F184ACF0C39F52
:1034E3007824F1E9119790003E1206E4ACF0C39FF3
:1034F3007826F1E91197F184C39FFFE5F09E9000D0
:103503003C8FF012078890003C1206E4D394CCE57C
:10351300F09400501A12279FF19020E0127BFF7A5B
:103523000E79C912106BC292C2967F03025334C341
:103533007924E778269619E71896501E12279FF1EB
:103543009020E016F1AC12059691CE7A0E79CF1247
:10355300106BD292C296E4FF803012279FF19090B5
:10356300F11730E013A3A391C87A0E79E312106B1D
:10357300C292D2967F0280121227A291C87A0E7944
:10358300FD12106BD292D2967F01125334C2B7222E
:10359300122E4DE4A3F0A3F0A3F0A3F012279FD1C2
:1035A30073240CFFE435F0FED15BFD5402FCA2E76B
:1035B3001390F11AF0ED5408FD7803A2E713D8FB3A
:1035C30090F11BF08F828E83E493FF5410FE7804F6
:1035D300A2E713D8FB90F11CF0EF5420FF7805A26B
:1035E300E713D8FB90F11DF012279F122E597A1C76
:1035F300796212106B7BFF7A1C797F90F11AF1A428
:103603007BFF7A1C799790F11BF1A47BFF7A1C79DD
:10361300AF90F11CF1A47BFF7A1C79C790F11DE0F8
:1036230090F152F012279CD173240BD15791CE7A8B
:103633001C79DF12279CD173240AD15791CE7A1CAF
:1036430079F812279CD1732409D15791CE7A1D7929
:103653001102106BFFE435F08F82F583E49322901F
:1036630000CD1206E4FF9000CFE5F08FF01207883B
:103673009000CF0206E4122E4DE4A3F0A3F090F3E2
:1036830033E0D394024002E18312279F9000CD12CE
:1036930006E4AEF0C3EE94B8500478237601C3EE8B
:1036A30094B45004E47823F67823E614603C046071
:1036B30002E13AE912438F12279F9000CD1197122E
:1036C30043817F0412211B50F912279FD1621255A7
:1036D30052D16E64207004E5F064B06002E163F1DE
:1036E300D97F0412211B407880F712434012438F85
:1036F30012279F9000CD11971243817F0412211B43
:1037030050F912279FD162125552D16EC394E0E54E
:10371300F094B7400612279F1249A412279FD17332
:1037230064207004E5F064B470367D01F1DB7F043E
:1037330012211B402B80F77D017C00F1C57F041211
:10374300211B50F97D027C00F1C57F0412211B501F
:10375300F912279F1248CB7BFF7A1C792812106B32
:1037630012279F122E597A1C794712279C9000CD5D
:10377300122E5C7A1C790B12106B90F333E004F079
:10378300229000380206E49000C30205AF90005F68
:103793000205AF90F117E0FBA3E0FAA3E02290F15A
:1037A30013E090F152F002106B90005E1205AFFF30
:1037B3003395E0FEE924B6F9E43AFAE92FF9EA3E53
:1037C300FA22E4FFFE0220AA7823E6FE08E622128C
:1037D30005DC90F00C227D02FCFFFE0220AA900083
:1037E3005C1205AFFF22F6EC9E18F690003A229089
:1037F300001A0206E490005C1205AFC36480948053
:103803002275D195AFCE75D1D022122E4DA374015E
:10381300F0A3F0A3740CF053E8CFD2B7D283000027
:103823000000000000000000000000000000000095
:1038330000000000000000C2830000000000000040
:103843000000000000000000000000000000000075
:103853000000000000000000000000000000000065
:103863000000000000000000000000000000000055
:103873000000000000000000000000000000000045
:103883000000000000000000000000000000000035
:103893000000000000000000000000000000000025
:1038A3000000000000000000000000000000000015
:1038B3000000000000000000000000000000000005
:1038C30000000000000000000000000000000000F5
:1038D30000000000000000000000000000000000E5
:1038E30000000000000000000000000000000000D5
:1038F30000000000000000000000000000000000C5
:1039030000E47826F690F11AE0C36480F5F0782697
:10391300E6648095F040026177E618F67826E6FFC4
:103923003395E0FE90F11CE0FD3395E0FCED2FFFB5
:10393300EC3EFE18E6FD3395E0FCC3ED9FEEF1711E
:103943004002616D7825E6782FF690F1207407F038
:10395300E4FBFD7F01122850D2B7000000000000F5
:103963000000000000000000000000000000000054
:103973000000000000000000000000000000000044
:103983000000000000000000000000000000000034
:103993000000000000000000000000000000000024
:1039A30000000000000000000000D2830000782F18
:1039B300E6B40C00400261049039C2F8282873026F
:1039C30039E60239FE023A16023A2E023A46023A22
:1039D3005E023A76023A8E023AA6023ABE023AD61C
:1039E300023AEEC283000000D287439C02E5A62080
:1039F300E4FBE5CB30E1FBC2876104C28300000036
:103A0300D2B0439C02E5A620E4FBE5CB30E1FBC248
:103A1300B06104C283000000D2B1439C02E5A6203A
:103A2300E4FBE5CB30E1FBC2B16104C283000000DB
:103A3300D2B4439C02E5A620E4FBE5CB30E1FBC214
:103A4300B46104C283000000D2B5439C02E5A62002
:103A5300E4FBE5CB30E1FBC2B56104C283000000A7
:103A6300D285439C02E5A620E4FBE5CB30E1FBC213
:103A7300856104C283000000D284439C02E5A62032
:103A8300E4FBE5CB30E1FBC2848076C28300000017
:103A9300D2B6439C02E5A620E4FBE5CB30E1FBC2B2
:103AA300B6805EC283000000D2CB439C02E5A62011
:103AB300E4FBE5CB30E1FBC2CB8046C283000000D0
:103AC300D295439C02E5A620E4FBE5CB30E1FBC2A3
:103AD30095802EC283000000D294439C02E5A62069
:103AE300E4FBE5CB30E1FBC2948016C28300000007
:103AF300D293439C02E5A620E4FBE5CB30E1FBC275
:103B0300931104BF81FB12406D7823A60608A60714
:103B13007F81F1797823E6FC08E6FD123796241EAF
:103B2300F9E43AFA782F71AB1237BEEC8DF0120735
:103B330069123796241EF9E43AFA71AB1237BE12B2
:103B43000684122E5F7A0F79F512106B1237CBFFB2
:103B5300F121AC06AD07782F71AB12279F8F828EB0
:103B630083F185C2B7782506211F90F11BE07826E3
:103B730026F6210812279F71B943E830227825E6FB
:103B8300FF3395E0FEEF25E0FFEE33FE8F828E8359
:103B93001206E47827A6F008F6E92FF9EA3EFA9030
:103BA30000021206E4FD7825E6FF3395E0FEEF25DB
:103BB300E0FFEE33FE2290F11D122E50E4A3F0A39A
:103BC300F090F11D1227A29000401208C1000000DE
:103BD30000E47827F690F11D1237992440F9E43A6E
:103BE300FAC003C002C0011207FAC006C007782753
:103BF30071AB90F11D1227A4F112F8D007D006F192
:103C030005D001D002D003D1F1B40CC990F11D123B
:103C130027A21237F2C4F8540FC868FFE5F0C45462
:103C2300F048FEE4C006C007B11EC3D0E09FFFD03A
:103C3300E09E90F120F0A3EFF0438F0190F120E09C
:103C4300FEA3E0FF8EB38FB275B70075B60C75B1E6
:103C530015E5B020E2FB7828A6B308A6B200538F7F
:103C6300FEE47827F67827E6F1B8501E08E6FC084C
:103C7300E6FDEF71AD90F11D1227A28F828E83ECCA
:103C83008DF012071C78270680DB90F11D1227A206
:103C93009000401208C100000000E47827F690F17C
:103CA3001D1237992440F9E43AFAC003C002C00157
:103CB3001207FAC006C007782771AB90F11D1227CF
:103CC300A4F112F8D007D006F105D001D002D00339
:103CD300D1F1B40CC9438F0190F11D1227A2B11E7B
:103CE300E48EB38FB2B11E78101207D48EB58FB4A1
:103CF30075B70075B60C75B112E5B020E2FB782AF2
:103D0300A6B308A6B218E6FE08E6FF90F11D122737
:103D1300A290003E122942538FFE229000400208D7
:103D23001A1237F85002A1D090003A1206E4AEF00E
:103D33007807CEC313CE13D8F99000C51205EE123F
:103D43003784AEF07807CEC313CE13D8F99000C6EC
:103D53001205EE90004E1206E4FF9000C7B1D19019
:103D6300004C1206E4FF9000C9B1D11237F2FF9064
:103D730000CBB1D190005C1205AF71AC747F2FF50D
:103D83008274F2D1E98EDAF5D99000C61205AFF547
:103D9300DB9000C51205AFF5DC9000C7D1F9E5D87B
:103DA30020E1FB90005C1205AF71AC745F2FF582CC
:103DB30074F2D1E98EDAF5D99000C91206E485F0E0
:103DC300DCF5DB9000CBD1F9E5D820E1FB22E5F06F
:103DD3008FF0020788122E4D12279F90004412067F
:103DE300E4FF900050B1D190005874011205EEF138
:103DF30099900052B1D190005974021205EEF191DD
:103E0300900054B1D190005A74031205EE90004A09
:103E13001206E4FF900056B1D190005B74041205C2
:103E2300EEE92450F9E43AFAC003C002C0011237A4
:103E3300962458F9E43AFA90F11D122E50A3740413
:103E4300F0D001D002D003D16C12279F9000501202
:103E530006E4FF90004CB1D19000561206E4FF90A7
:103E6300004EE5F08FF002078890F11A122E507879
:103E7300237601E408F690F120F1DA5068E408F6BD
:103E830090F1201243B35056EE71AC90F11A1237F1
:103E930099F1A1F1AD90F11A1227A4F1BFE5F0F168
:103EA300714036718090F11A1227A2F1CBFC08E61B
:103EB300FD1237BEF18290F11D1227A2F1E9F6122D
:103EC30037BE9000011205AFFF90F11D1227A21219
:103ED3004325900001EF1205EE78250680A2782392
:103EE3000608068091223EF583E0FEA3E022120835
:103EF3004A782706E6221206E485F0DEF5DD75D85A
:103F0300F122EF2BFFEE3AFEE93DFDE83CFC228F68
:103F1300828E831206E4AEF0FBAA06E4F922438FF5
:103F230001EF7805C333CE33CED8F98EB3F5B2782B
:103F33002F71AB74E22FF58274F1D1E98EB7F5B628
:103F430075B110E5B020E2FB7827A6B508A6B41832
:103F5300E6FC08E6FD122A1B7A00790312106B00B7
:103F6300538FFE7828E624ACFF18E436FE226480E3
:103F7300F8EC6480982275D1958FCF75D1D02290BB
:103F83000002EC8DF0020788110D90F00F229000D3
:103F9300481206E4FF229000461206E4FF222FF99E
:103FA300EA3EFA900002229000781206E4FDACF09B
:103FB3002290F113E0FFC36480948C228F828E835E
:103FC3001206E4FFD3ED9F228F828E83E5F08DF0FE
:103FD3001207887827E622E014C36480F5F078247A
:103FE300E6648095F0227825E6FF3395E0FE8F8224
:103FF300F5831205AF782622124066E5CA30E41233
:10400300E5CAAECB7806CEC313CE13D8F9FFEE5470
:1040130003FE75D1D0221166E5CC30E40EE5CCAEBB
:10402300CD7806CEC313CE13D8F9FF75D1D02212A3
:104033003FFB7823A60608A60711197825A60608CC
:10404300A607114D7827A60608221166E5CE30E4AF
:104053000EE5CEAECF7806CEC313CE13D8F9FF75D7
:10406300D1D022E4FFFE75D192221166E5D230E46D
:104073000EE5D2AED37806CEC313CE13D8F9FF75AF
:10408300D1D02275A301E4F5A6F5A7759C47F59D4C
:10409300759E01F59F75A401F5A5F5A3F59AF59B0A
:1040A300F59EF59F75A30275FA01F5FBF5FEF5FF85
:1040B300F5FCF5FDF5A7F59AF59BF5A6F59EF59F9D
:1040C300F59CF59D75A303F5FFF59EF59FF5A4F506
:1040D300A3759C40759D4022D2B022D2B122D2B4A6
:1040E30022D2B522D28522D28422D2B622D2CB22A8
:1040F300D29522D29422D29322C28722C2B022C264
:10410300B122C2B422C2B522C28522C28422C2B65F
:1041130022C2CB22C29522C29422C293228F828EC4
:10412300833192AF82AE83318A75B7AF75B6237B85
:10413300FF7A007913AE83AF8290F152EEF0A3EFD2
:10414300F012106B90F1FAE0FCA3E0FD319A122A11
:10415300267A00791D12106B75B110E5B020E2FBD1
:10416300782DA6B508A6B4ADB4ACB5E41203191204
:104173002A297A00793F12106B538FFE782DE6C3FC
:1041830013FE08E613FF221206108EB38FB22243EA
:104193008F017C007D2822E41203197B007A2379A6
:1041A3002F784722122E4D249EF9E43AFAA3122EB9
:1041B30050123796517B90F11D122E5090F1171229
:1041C30027A490F120122E50E4FF90F1201227A291
:1041D300120684FDACF090F11AE0FBA3E475F00243
:1041E30012066EA9F0FAEC8DF012076990F11DE04A
:1041F300FBA3E475F00112066EA9F0FAEF1205DCD9
:1042030090F121E475F0021206580FEFB40CBB12C3
:104213003796249EF9E43AFAC003C002C001714004
:10422300517B90F126122E50A3740CF0D001D002D2
:10423300D00351A212279F90005E740B1205EE90DB
:10424300009E1206E4FF900038123DD190005E12EA
:1042530005AF123BACE9249E1237BA120684FF1253
:10426300279F90003AE5F08FF002078890005E12D6
:1042730005AFFD3395E0FCE924B6F9E43AFA229060
:10428300F00C122E5090F00C1227A212380D90F061
:104293000C1227A231A790F00C1227A202346690C9
:1042A300F123122E5078237601E408F690F12912B7
:1042B3003FDA506DE408F690F12971B3505CEE12C9
:1042C3003BAC90F123123799123FA1123FAD90F10D
:1042D300231227A4123FBFEC95F04039123B809084
:1042E300F1231227A2123FCBFC08E6FD1237BE12C0
:1042F3003F8290F1261227A2123FE9F61237BE90B1
:1043030000011205AFFF90F1261227A2712590003C
:1043130001EF1205EE782506809D782306080680B6
:104323008B227825E6FD3395E0FC8D82F583EF1231
:1043330005EE7826E6FFE92DF9EA3CFA2290F1171B
:10434300A3E0FAA3E022122E4D7D007C021237C5B2
:104353007F0412211B50F97140AE02FF71977FE079
:104363007EBF71817F0412211B50F97BFF7A1D7977
:104373002A90F15274BFF0A374E0F002106BAD0702
:10438300AC06ECF5838F827FC00220EC24CDF9E4E8
:104393003AFEAF01E4FD0FEFAA0670010E14F58299
:1043A3008A83E0FC74C02DF8A6040DEDB420E72247
:1043B300E0C3782396FF7825E6FEC3EF6480F8EE2A
:1043C30064809822C2AF9000B61205AF7824F6B489
:1043D3000C004002A13A9043E0F8282873024404F9
:1043E30002441E02443802445202446C02448602D0
:1043F30044A00244BA0244D40244EE0245080245F2
:1044030022F1A800782306E6B41BF8D2B700000017
:1044130000000000000000C287A13AF1A100782348
:1044230006E6B41BF8D2B70000000000000000004D
:1044330000C2B0A13AF19A00782306E6B41BF8D281
:10444300B700000000000000000000C2B1A13AF173
:104453009300782306E6B41BF8D2B70000000000EF
:104463000000000000C2B4A13AF18C00782306E6F4
:10447300B41BF8D2B700000000000000000000C227
:10448300B5A13AF18500782306E6B41BF8D2B7004C
:10449300000000000000000000C285A13AF17E0088
:1044A300782306E6B41BF8D2B70000000000000032
:1044B300000000C284A13AF17700782306E6B41B1A
:1044C300F8D2B700000000000000000000C2B68070
:1044D30066F17000782306E6B41BF8D2B70000003B
:1044E30000000000000000C2CB804CD14A007823BA
:1044F30006E6B41BF8D2B70000000000000000007D
:1045030000C2958032B15200782306E6B41BF8D27C
:10451300B700000000000000000000C2948018B142
:104523004B00782306E6B41BF8D2B7000000000066
:104533000000000000C293F1AF00782306E6B40840
:10454300F8C2B7C283D2AF22D293E47823F622D241
:1045530094E47823F622C2AFC2B79000B61205AF37
:10456300B40C004002C13B904571F8282873024502
:10457300950245A30245B10245BF0245CD0245DB85
:104583000245E90245F702460502461302462102A7
:10459300462FF1A800782306E6B41BF8C287C13B77
:1045A300F1A100782306E6B41BF8C2B0C13BF19A2F
:1045B30000782306E6B41BF8C2B1807CF19300783F
:1045C3002306E6B41BF8C2B4806EF18C0078230690
:1045D300E6B41BF8C2B58060F18500782306E6B423
:1045E3001BF8C2858052F17E00782306E6B41BF8DF
:1045F300C2848044F17700782306E6B41BF8C2B680
:104603008036F17000782306E6B41BF8C2CB80280D
:10461300D14A00782306E6B41BF8C295801AB1523A
:1046230000782306E6B41BF8C294800CB14B0078E3
:104633002306E6B41BF8C293F1AF00782306E6B471
:1046430008F8C283D2AF22D295E47823F622C2AF10
:10465300D2B7F1AF00782306E6B40DF81237AC12E7
:104663000596B40C004002E16D904673F828287358
:104673000246970246A90246BB0246CD0246DF0226
:1046830046F102470302471502472702473902470B
:104693004B02475DC283C2B7F1A800782306E6B494
:1046A30020F8C287E16DC283C2B7F1A10078230667
:1046B300E6B420F8C2B0E16DC283C2B7F19A0078C4
:1046C3002306E6B420F8C2B1E16DC283C2B7F19309
:1046D30000782306E6B420F8C2B4E16DC283C2B702
:1046E300F18C00782306E6B420F8C2B5807CC2833F
:1046F300C2B7F18500782306E6B420F8C285806A44
:10470300C283C2B7F17E00782306E6B420F8C284E0
:104713008058C283C2B7F17700782306E6B420F845
:10472300C2B68046C283C2B7F17000782306E6B4EE
:1047330020F8C2CB8034C283C2B7D14A00782306A3
:10474300E6B420F8C2958022C283C2B7B152007882
:104753002306E6B420F8C2948010C283C2B7B14BDB
:1047630000782306E6B420F8C293D2AF22D2CBE47A
:104773007823F622D2B6E47823F622D284E478238F
:10478300F622D285E47823F622D2B5E47823F62202
:10479300D2B4E47823F622D2B1E47823F622D2B05D
:1047A300E47823F622D287E47823F622D283E478CE
:1047B30023F62290F000122E50C2AF0000E47823BB
:1047C300F600782306E6B40DF80000E47823F6003B
:1047D300782306E6B420F8D2AF2275B2025390FDD7
:1047E300439102E4F5B243910253B3FEF5BD7598CC
:1047F3005075BE4D43BD012275BB7275A802E4F529
:10480300E8F5B7F5BAF5B322C0E0C0F0C083C082C3
:10481300C0D075D000C000C001C002C003C004C036
:1048230005C006C00775BF00E5BC30E10C53BCFDF5
:104833007BFF7A20798512106BE5BC30E40C53BC06
:10484300EF7BFF7A20798E12106BE5BC30E50C53B9
:10485300BCDF7BFF7A20799712106BE5BC30E60C46
:1048630053BCBF7BFF7A2079A112106BD007D0060F
:10487300D005D004D003D002D001D000D0D0D08254
:10488300D083D0F0D0E032E5D820E1FBC0D9C0DA44
:10489300C0DBC0DCC0DDC0DEEF75F008A42407FF79
:1048A300E5F03404F5DA8FD9E4F5DCF5DB75DE07E2
:1048B30075DD2075D8F1E5D820E1FBD0DED0DDD061
:1048C300DCD0DBD0DAD0D92290F11C122E50E4FFD9
:1048D300FEFDFC90B400319D6012E4FFFEFDFC90F0
:1048E300B7E0319D7006782776208004E47827F6B8
:1048F3007827E618F67826E6F9C3648094C1503425
:10490300E9FF3395E0FEEF7805C333CE33CED8F914
:104913002400FFEE34B0FE7824F608EFF6F5828E1D
:1049230083120864E4FBFAF9F8C31207C36005783D
:10493300260680C17824E6FE08E6FF7003EE64B025
:104943006008EFB40016EEB4B81290F11C1227A25F
:1049530031A49000CF74B775F0E0801890F11C1269
:1049630027A29000CD122942EF24E0FFEE34FF90FE
:1049730000CF8FF012078890F11C1227A2122E5934
:104983007A1B79F212106B90F11C1227A29000CDC2
:10499300122E5C7A1C790B02106B120874C3020787
:1049A300C39000CD74B075F00002078890F00C122C
:1049B3002E50E4A3F090F00C1227A21237F8500304
:1049C3007F002290F01012089000000000E47F5056
:1049D3007EC3FDFC90F010514BFBC31207C3503C48
:1049E30090F00C1227A290005C1205AF123BAC743E
:1049F3009F2FF58274F2123EE98EDAF5D9E4F5D8E9
:104A0300E5D820E1FB516330E0037F002290F010F2
:104A1300513D515690F01012088480B190F00C1261
:104A2300379924C212308D44801237D21230844415
:104A3300041205DC7F01223EF583E0FCA3E0FDA325
:104A4300E0FEA3E02290F012E0F8A3E0F9A3E0FA7D
:104A5300A3E0222401FFE43EFEE43DFDE43CFC220E
:104A630090F00FE5DBF0E02290F00F122E50C29889
:104A73007BFF7A14798312106B7BFF7A1479AE1261
:104A8300106B7BFF7A1479C112106B7BFF7A147958
:104A9300D212106B7BFF7A1479E012106B7BFF7AD2
:104AA3001479F612106B7BFF7A15791A12106B7B4F
:104AB300FF7A15793E12106B7BFF7A15795112102C
:104AC3006B7BFF7A15797212106B90F012120890BB
:104AD30000000000E47F207E4EFDFC5148FBC31222
:104AE30007C3500F90F012513D515690F012120827
:104AF3008480E190F00F1227A212287890F00F1211
:104B030027A2123DD820981090F00F1227A212531B
:104B13002650028001C350B22098030251DBC29891
:104B2300E5996462704C7BFF7A15799712549CF077
:104B330012005ABF0AF090F018E070024173125548
:104B4300261227A290005EEF1205EE12426F124367
:104B530039EF1205DC90F00F1227A21246511254BE
:104B6300CE003098FCC298E599B41BD21254F412CB
:104B7300106BE599647470387BFF7A1579FB1254D6
:104B83009CF012005ABF0AF090F018E070024173D3
:104B93001255261227A212556C1243C71254CE0087
:104BA3003098FCC298E599B41BE61254F412106BCA
:104BB300E599646970387BFF7A16792912549CF061
:104BC30012005ABF0AF090F018E0700241731255B8
:104BD300261227A212556C1245591254CE00309852
:104BE300FCC298E599B41BE61254F412106BE599D4
:104BF300647270667BFF7A16795E12106B90F00F09
:104C030012379924C212308D12553644041205DC32
:104C130044101205DC90F00F12379924C312308D23
:104C230012553690F00F1227A211CB90F00F1227D6
:104C3300A21232BD90F00F1227A212367990F00F14
:104C43001227A21235931254CE003098FCC298E575
:104C530099B41BE91254F412106BE59964737057FD
:104C630090F00F1227A212297C7BFF7A167981120A
:104C7300106B90F00F1227A212287890F00F1227D2
:104C8300A2123F8B1227A21241A790F00F1227A264
:104C9300123DD890F00F1227A2122E6C90F00F1233
:104CA30027A2122D211254CE003098FC12555C70AD
:104CB300B81254F412106BE599646D6002A1DC9094
:104CC300F00F1227A212297C7BFF7A1679931254D4
:104CD3009CF012005ABF0AF090F018E07002417382
:104CE3007BFF7A1679C512554074F0F0A37417F060
:104CF3007BFF7A1679EF1254B3F012005ABF0AE021
:104D030090F018E0700241737BFF7A1679F212106B
:104D13006B90F00F1227A212287890F00F1227A29F
:104D2300123F8B1227A21241A790F00F1227A21253
:104D33003DD890F00F1227A2122D2190F017E024F6
:104D430097604624F560332412706890F00F123791
:104D530099245F12308D54FE1205DC90F00F122758
:104D6300A290003E741675F0661254D7E0FF12420B
:104D73006F124339EF1205DC804290F00F1237991E
:104D8300245F12308D54FE800D90F00F123799245A
:104D93005F12308D44011205DC90F00F1227A290B0
:104DA300003E741075F0001254D7E09000B612055F
:104DB300EE80097BFF7A17791412106B90F00F12B3
:104DC30027A21234D51254CE003098FC12555C60E1
:104DD30002A10B1254F412106BE599647570609084
:104DE300F00F1227A212297C7BFF7A17791B12106E
:104DF3006B90F00F1227A212287890F00F1227A2BF
:104E0300123F8B1227A21241A790F00F1227A21272
:104E13003DD890F00F1227A2122D2190F00F1237D8
:104E230099245F12308D54FE1205DC90F00F122787
:104E3300A21234D512555C70B81254F412106BE5FB
:104E430099646360030251DB90F113F0123FB45095
:104E53001D90F00F12379912530CEF123BAD12371E
:104E6300BE744075F0001207691252E380DE90F0C1
:104E73000F1227A290007874AF75F023120788E40D
:104E830090F10FF0A3F090F00F1227A21228789060
:104E9300F00F1227A212380D90F110E004F0700603
:104EA30090F10FE004F0C390F110E0940390F10F40
:104EB300E0940040D190F00F1227A21241A790F086
:104EC3000F1227A2123DD890F00F1227A2122E6CB8
:104ED30090F00F1227A2122D21E490F113F07BFF23
:104EE3007A17794312554074F0F0A37481F0125489
:104EF300FB90F081513DFF12551512106B12005AB1
:104F0300BF0ADB90F115E0700690F113E014F01284
:104F130052E3E0C36480948140C490F00F1227A24F
:104F230090001A122F10784312027790F0ED1208B6
:104F33008490F0ED514BFB90F081513DFF120277CD
:104F430090F0F11208847BFF7A17796C90F113E0EB
:104F530090F152F090F0F1513D12531312106B90F7
:104F6300F00F1227A2123FAAE412031990F0F15195
:104F73004BFB12531A12035290F111EEF0A3EFF010
:104F8300E490F114F07BFF7A17797B90F1141237D8
:104F9300A41252D6C333CE33CED8F92419F974F000
:104FA3003EFA90F11A7401122E511254FB1252D68A
:104FB300C333CE33CED8F92419F58274F0513AFFB6
:104FC30012551512106B12005AEF640A70B790F164
:104FD30015E0700690F114E014F090F114E004F081
:104FE300E0C36480948C409DE490F113F090F1133E
:104FF300E0F9C36480948C4003025137E951DAC36A
:1050030033CE33CED8F92419F58274F0124A3AFF1D
:105013007101C004C005C006C00790F113E0FB3363
:1050230095E0FAEBAE027802C333CE33CED8F9243F
:105033004DF58274F03EF583D007D006D005D00439
:10504300120884EB25E0FFEA33FE90F00F1227A24B
:105053008F828E83122F1078451202777101C0045C
:10506300C005C006C00790F11351D9C333CE33CE68
:10507300D8F9FBAA06248551F9D007D006D005D06C
:105083000412088474852B51F9124A4BFBC000C0EB
:1050930001C002C00390F11351D9C333CE33CED82C
:1050A300F9244DF58274F0124A3AFFD003D002D0AE
:1050B30001D000120277C004C005C006C00790F1FA
:1050C3001351D9C333CE33CED8F951EA3EF583D049
:1050D30007D006D005D0041208847BFF7A1779988D
:1050E30090F113E0FF90F152F051DBC333CE33CE96
:1050F300D8F951EA124A3A711312106B90F1135115
:10510300D9C333CE33CED8F951EA124A3AFFE4FB7E
:10511300FA79807846711A120352AD07AC0690F102
:1051230013E0123BAC51F13EF583ECF0A3EDF051EB
:10513300E3024FF090F111E0FFA3E090F10DCFF007
:10514300A3EFF07BFF7A1779A71237A112005A90C9
:10515300F116EFF064796004E0B46EE790F116E0C5
:10516300B479097B017AF079F512434990F00F1273
:1051730027A212297CE490F113F0123FB4502D9032
:10518300F00F123799710CEF123BAD1237BE1206B6
:1051930084FD51F1123EE96D7003EE65F060097B09
:1051A300FF7A1779C21237A151E380CE90F00F1224
:1051B30027A29000781206E4FF90F10DE065F070ED
:1051C30003A3E06F60097BFF7A1779E012106B7B12
:1051D300FF7A1779FD12106B90F00F1227A2712638
:1051E3004003024A737BFF7A18791112106B90F017
:1051F3000F1227A212287890F00F1227A2123DD87F
:1052030090F00F1227A2123F8B1227A21241A790F0
:10521300F00F1227A212346690F00F1227A2122F5A
:10522300A490F00F1227A2122F2090F00F1227A2A2
:1052330012335230E0087BFF7A18791D805590F0C5
:105243000F1227A212335230E1087BFF7A1879320A
:10525300804190F00F1227A212335230E6087BFFF1
:105263007A187948802D90F00F1227A2123352300A
:10527300E2087BFF7A18795F801990F00F1227A25A
:1052830012378A54037BFF60067A18797480047A94
:1052930018798612106B90F00F1227A29000C2E4C7
:1052A3001205EE90F012120890000000007F207E9D
:1052B300A17D077C00124A48FBC31207C3400302C7
:1052C3004A7390F012124A3D124A5690F012120895
:1052D3008480DA90F114E0FF3395E0FEEF78022248
:1052E30090F113E004F02224B9F58274F02274F5EE
:1052F3002FF58274F022F58274F03AF583227B3124
:105303007A08792C78BD02007D2460F9E43AFA2208
:10531300FF90F15302088412016EE4FBFAF9783F1F
:1053230002007D90001C1206E4C394FCE5F0940196
:105333002290F11AEFF074FF7827F608F678270821
:10534300E6161886067001164E604690F25C122728
:10535300A2C00290F11AE0FF3395E0FE90F32771AB
:1053630095F583A3E0FAA3E0F5828A83D0021209BC
:105373005B000000000000000000000000000000CF
:10538300000000000000000000000000000000809A
:10539300AC2275F003EF1208E5EE75F003A4258344
:1053A3002290F00C122E50A31227A2123352FF5454
:1053B30044600A90F00C1227A274038029EF54036F
:1053C300600A90F00C1227A27401801A90F00F1259
:1053D30027A212335290F00C30E4071227A2740272
:1053E30080041227A2E471F31227A20227E97405AD
:1053F3001205DC90F0122290F00C122E50A312270B
:10540300A21233525444602890F0121227A29190B2
:105413009432EE9400400E90F00F1227A29189125D
:1054230027A21227E990F00C1227A274030205DCCD
:1054330090F00C1227A271F11227A20227E990F033
:105443000C122E50A31227A2123352540360289039
:10545300F0121227A29190940AEE9400400E90F05D
:105463000F1227A291891227A21227E990F00C129A
:1054730027A274010205DC90F00C1227A2E471F359
:105483001227A20227E912340C90F01222E475F0DD
:10549300011206AFFED3E5F02212106B90F11A74DD
:1054A30001F0A374F0F0A37416F07BFF7A1579C8AA
:1054B30012192590F018EF22A37401F0A374F1F0F0
:1054C300A37480F07B017AF1797F227BFF7A1579CF
:1054D300CC02106B120788900038742475F0CC123C
:1054E300078890003A740175F09912078890F016B6
:1054F300227BFF7A1579ED227BFF7A17795C1219EB
:105503002590F115EFF07BFF7A17795F227845122A
:10551300027790F152020884784512027790F1568F
:1055230002088490F016E0FF90F00F22122F88906B
:10553300F0072244011205DC44020205DC12106B61
:1055430090F11A7401F0A322122F2090F007222465
:1055530020FFE435F09000CD22C298E599641B2228
:105563007F007E007D007C02229000B6EF0205EEF4
:00000001FF
